{
  "contractName": "AIModelLeasing",
  "abi": [
    {
      "anonymous": false,
      "inputs": [
        {
          "indexed": true,
          "internalType": "uint256",
          "name": "modelId",
          "type": "uint256"
        },
        {
          "indexed": false,
          "internalType": "address",
          "name": "leaser",
          "type": "address"
        }
      ],
      "name": "ModelLeased",
      "type": "event"
    },
    {
      "anonymous": false,
      "inputs": [
        {
          "indexed": true,
          "internalType": "uint256",
          "name": "modelId",
          "type": "uint256"
        },
        {
          "indexed": false,
          "internalType": "address",
          "name": "owner",
          "type": "address"
        },
        {
          "indexed": false,
          "internalType": "string",
          "name": "description",
          "type": "string"
        },
        {
          "indexed": false,
          "internalType": "uint256",
          "name": "pricePerUse",
          "type": "uint256"
        }
      ],
      "name": "ModelRegistered",
      "type": "event"
    },
    {
      "anonymous": false,
      "inputs": [
        {
          "indexed": true,
          "internalType": "uint256",
          "name": "modelId",
          "type": "uint256"
        },
        {
          "indexed": false,
          "internalType": "address",
          "name": "releaser",
          "type": "address"
        }
      ],
      "name": "ModelReleased",
      "type": "event"
    },
    {
      "inputs": [
        {
          "internalType": "uint256",
          "name": "",
          "type": "uint256"
        }
      ],
      "name": "modelLeasers",
      "outputs": [
        {
          "internalType": "address",
          "name": "",
          "type": "address"
        }
      ],
      "stateMutability": "view",
      "type": "function",
      "constant": true
    },
    {
      "inputs": [
        {
          "internalType": "uint256",
          "name": "",
          "type": "uint256"
        }
      ],
      "name": "models",
      "outputs": [
        {
          "internalType": "uint256",
          "name": "id",
          "type": "uint256"
        },
        {
          "internalType": "address payable",
          "name": "owner",
          "type": "address"
        },
        {
          "internalType": "string",
          "name": "description",
          "type": "string"
        },
        {
          "internalType": "uint256",
          "name": "pricePerUse",
          "type": "uint256"
        },
        {
          "internalType": "bool",
          "name": "available",
          "type": "bool"
        }
      ],
      "stateMutability": "view",
      "type": "function",
      "constant": true
    },
    {
      "inputs": [
        {
          "internalType": "string",
          "name": "description",
          "type": "string"
        },
        {
          "internalType": "uint256",
          "name": "pricePerUse",
          "type": "uint256"
        }
      ],
      "name": "registerModel",
      "outputs": [],
      "stateMutability": "nonpayable",
      "type": "function"
    },
    {
      "inputs": [
        {
          "internalType": "uint256",
          "name": "modelId",
          "type": "uint256"
        }
      ],
      "name": "leaseModel",
      "outputs": [],
      "stateMutability": "payable",
      "type": "function",
      "payable": true
    },
    {
      "inputs": [
        {
          "internalType": "uint256",
          "name": "modelId",
          "type": "uint256"
        }
      ],
      "name": "releaseModel",
      "outputs": [],
      "stateMutability": "nonpayable",
      "type": "function"
    },
    {
      "inputs": [],
      "name": "getModelCount",
      "outputs": [
        {
          "internalType": "uint256",
          "name": "",
          "type": "uint256"
        }
      ],
      "stateMutability": "view",
      "type": "function",
      "constant": true
    }
  ],
  "bytecode": "0x608060405234801561001057600080fd5b50610b20806100206000396000f3fe6080604052600436106100555760003560e01c80634989dbb01461005a57806349bd293e1461007d5780634cceb9be1461009f5780636a030ca9146100bf5780637dfb34f3146100f0578063c488fb621461013e575b600080fd5b34801561006657600080fd5b506000546040519081526020015b60405180910390f35b34801561008957600080fd5b5061009d6100983660046107d9565b610151565b005b3480156100ab57600080fd5b5061009d6100ba36600461088e565b6102e8565b3480156100cb57600080fd5b506100df6100da36600461088e565b610432565b6040516100749594939291906108ed565b3480156100fc57600080fd5b5061012661010b36600461088e565b6001602052600090815260409020546001600160a01b031681565b6040516001600160a01b039091168152602001610074565b61009d61014c36600461088e565b61050b565b600081116101a65760405162461bcd60e51b815260206004820152601f60248201527f5072696365206d7573742062652067726561746572207468616e207a65726f0060448201526064015b60405180910390fd5b600080546040805160a0810182528281523360208201908152918101868152606082018690526001608083018190528401855593805280517f290decd9548b62a8d60345a988386fc84ba6bc95484008f6362f93160ef3e5636005850290810191825592517f290decd9548b62a8d60345a988386fc84ba6bc95484008f6362f93160ef3e564840180546001600160a01b0319166001600160a01b0390921691909117905593519293909290917f290decd9548b62a8d60345a988386fc84ba6bc95484008f6362f93160ef3e565019061028090826109b9565b50606082015160038201556080909101516004909101805460ff191691151591909117905560405181907f014ed8d238576d2b30ced417ba64fa4db7c350b5f09ffa335abaefcc33047e7b906102db90339087908790610a79565b60405180910390a2505050565b600054811061032c5760405162461bcd60e51b815260206004820152601060248201526f125b9d985b1a59081b5bd9195b08125160821b604482015260640161019d565b6000818152600160205260409020546001600160a01b031633146103a85760405162461bcd60e51b815260206004820152602d60248201527f4f6e6c79207468652063757272656e74206c65617365722063616e2072656c6560448201526c185cd9481d1a19481b5bd9195b609a1b606482015260840161019d565b6001600082815481106103bd576103bd610aad565b60009182526020808320600592909202909101600401805460ff1916931515939093179092558281526001825260409081902080546001600160a01b03191690555133815282917f14068245f8e4f79dd41f38932d41b9337b9511ecc08d37be5d04936dc6ec0167910160405180910390a250565b6000818154811061044257600080fd5b60009182526020909120600590910201805460018201546002830180549294506001600160a01b03909116929161047890610930565b80601f01602080910402602001604051908101604052809291908181526020018280546104a490610930565b80156104f15780601f106104c6576101008083540402835291602001916104f1565b820191906000526020600020905b8154815290600101906020018083116104d457829003601f168201915b50505050600383015460049093015491929160ff16905085565b600054811061054f5760405162461bcd60e51b815260206004820152601060248201526f125b9d985b1a59081b5bd9195b08125160821b604482015260640161019d565b600080828154811061056357610563610aad565b60009182526020909120600590910201600481015490915060ff166105c35760405162461bcd60e51b81526020600482015260166024820152754d6f64656c206973206e6f7420617661696c61626c6560501b604482015260640161019d565b806003015434101561060e5760405162461bcd60e51b8152602060048201526014602482015273125b9cdd59999a58da595b9d081c185e5b595b9d60621b604482015260640161019d565b600181015460038201546040516000926001600160a01b031691908381818185875af1925050503d8060008114610661576040519150601f19603f3d011682016040523d82523d6000602084013e610666565b606091505b50509050806106b75760405162461bcd60e51b815260206004820152601d60248201527f5061796d656e7420746f206d6f64656c206f776e6572206661696c6564000000604482015260640161019d565b81600301543411156107635760008260030154346106d59190610ac3565b604051909150600090339083908381818185875af1925050503d806000811461071a576040519150601f19603f3d011682016040523d82523d6000602084013e61071f565b606091505b50509050806107605760405162461bcd60e51b815260206004820152600d60248201526c1499599d5b990819985a5b1959609a1b604482015260640161019d565b50505b60048201805460ff1916905560008381526001602090815260409182902080546001600160a01b03191633908117909155915191825284917f7d5c284d825a56684486f9d20eb2da7e765022c11902d18e28ffb4905145a30791016102db565b634e487b7160e01b600052604160045260246000fd5b600080604083850312156107ec57600080fd5b823567ffffffffffffffff8082111561080457600080fd5b818501915085601f83011261081857600080fd5b81358181111561082a5761082a6107c3565b604051601f8201601f19908116603f01168101908382118183101715610852576108526107c3565b8160405282815288602084870101111561086b57600080fd5b826020860160208301376000602093820184015298969091013596505050505050565b6000602082840312156108a057600080fd5b5035919050565b6000815180845260005b818110156108cd576020818501810151868301820152016108b1565b506000602082860101526020601f19601f83011685010191505092915050565b8581526001600160a01b038516602082015260a060408201819052600090610917908301866108a7565b6060830194909452509015156080909101529392505050565b600181811c9082168061094457607f821691505b60208210810361096457634e487b7160e01b600052602260045260246000fd5b50919050565b601f8211156109b457600081815260208120601f850160051c810160208610156109915750805b601f850160051c820191505b818110156109b05782815560010161099d565b5050505b505050565b815167ffffffffffffffff8111156109d3576109d36107c3565b6109e7816109e18454610930565b8461096a565b602080601f831160018114610a1c5760008415610a045750858301515b600019600386901b1c1916600185901b1785556109b0565b600085815260208120601f198616915b82811015610a4b57888601518255948401946001909101908401610a2c565b5085821015610a695787850151600019600388901b60f8161c191681555b5050505050600190811b01905550565b6001600160a01b0384168152606060208201819052600090610a9d908301856108a7565b9050826040830152949350505050565b634e487b7160e01b600052603260045260246000fd5b81810381811115610ae457634e487b7160e01b600052601160045260246000fd5b9291505056fea2646970667358221220c2ee9645fedc1504ca6477334f048815c2deb5905c000ff847dab3a7340de8e764736f6c63430008110033",
  "immutableReferences": {},
  "source": "// SPDX-License-Identifier: MIT\npragma solidity ^0.8.0;\n\ncontract AIModelLeasing {\n    struct Model {\n        uint256 id;\n        address payable owner;\n        string description;\n        uint256 pricePerUse;\n        bool available;\n    }\n\n    Model[] public models;\n    mapping(uint256 => address) public modelLeasers;\n\n    event ModelRegistered(uint256 indexed modelId, address owner, string description, uint256 pricePerUse);\n    event ModelLeased(uint256 indexed modelId, address leaser);\n    event ModelReleased(uint256 indexed modelId, address releaser);\n\n    // Function to register a new model\n    function registerModel(string memory description, uint256 pricePerUse) public {\n        require(pricePerUse > 0, \"Price must be greater than zero\");\n        \n        uint256 modelId = models.length;\n        models.push(Model(modelId, payable(msg.sender), description, pricePerUse, true));\n        \n        emit ModelRegistered(modelId, msg.sender, description, pricePerUse);\n    }\n\n    // Function to lease a model\n    function leaseModel(uint256 modelId) public payable {\n        require(modelId < models.length, \"Invalid model ID\");  // Prevents out-of-bounds errors\n        Model storage model = models[modelId];\n        \n        require(model.available, \"Model is not available\");\n        require(msg.value >= model.pricePerUse, \"Insufficient payment\");\n\n        // Safe transfer to the model owner\n        (bool success, ) = model.owner.call{value: model.pricePerUse}(\"\");\n        require(success, \"Payment to model owner failed\");\n\n        // Refund excess payment\n        if (msg.value > model.pricePerUse) {\n            uint256 refundAmount = msg.value - model.pricePerUse;\n            (bool refunded, ) = payable(msg.sender).call{value: refundAmount}(\"\");\n            require(refunded, \"Refund failed\");\n        }\n\n        // Update lease status\n        model.available = false;\n        modelLeasers[modelId] = msg.sender;\n\n        emit ModelLeased(modelId, msg.sender);\n    }\n\n    // Function to release a model (make it available again)\n    function releaseModel(uint256 modelId) public {\n        require(modelId < models.length, \"Invalid model ID\");  // Prevents out-of-bounds errors\n        require(msg.sender == modelLeasers[modelId], \"Only the current leaser can release the model\");\n\n        models[modelId].available = true;\n        delete modelLeasers[modelId]; // Clears the leaser record\n\n        emit ModelReleased(modelId, msg.sender);\n    }\n\n    // Get the number of models\n    function getModelCount() public view returns (uint256) {\n        return models.length;\n    }\n}\n",
  "sourcePath": "/home/tobin/blockchain-ai-leasing/contracts/AIModelLeasing.sol",
  "compiler": {
    "name": "solc",
    "version": "0.8.17+commit.8df45f5f.Emscripten.clang"
  },
  "schemaVersion": "3.4.16",
  "updatedAt": "2025-02-17T05:43:07.355Z",
  "networkType": "ethereum",
  "devdoc": {
    "kind": "dev",
    "methods": {},
    "version": 1
  },
  "userdoc": {
    "kind": "user",
    "methods": {},
    "version": 1
  }
}