{
  "contractName": "AIModelLeasing",
  "abi": [
    {
      "inputs": [],
      "stateMutability": "nonpayable",
      "type": "constructor"
    },
    {
      "anonymous": false,
      "inputs": [
        {
          "indexed": false,
          "internalType": "address",
          "name": "deployer",
          "type": "address"
        }
      ],
      "name": "ContractDeployed",
      "type": "event"
    },
    {
      "anonymous": false,
      "inputs": [
        {
          "indexed": false,
          "internalType": "string",
          "name": "message",
          "type": "string"
        }
      ],
      "name": "DebugLog",
      "type": "event"
    },
    {
      "anonymous": false,
      "inputs": [
        {
          "indexed": false,
          "internalType": "uint256",
          "name": "modelId",
          "type": "uint256"
        },
        {
          "indexed": false,
          "internalType": "address",
          "name": "leaser",
          "type": "address"
        },
        {
          "indexed": false,
          "internalType": "uint256",
          "name": "pricePaid",
          "type": "uint256"
        }
      ],
      "name": "ModelLeased",
      "type": "event"
    },
    {
      "anonymous": false,
      "inputs": [
        {
          "indexed": false,
          "internalType": "uint256",
          "name": "modelId",
          "type": "uint256"
        },
        {
          "indexed": false,
          "internalType": "address",
          "name": "owner",
          "type": "address"
        },
        {
          "indexed": false,
          "internalType": "string",
          "name": "description",
          "type": "string"
        },
        {
          "indexed": false,
          "internalType": "uint256",
          "name": "pricePerUse",
          "type": "uint256"
        }
      ],
      "name": "ModelRegistered",
      "type": "event"
    },
    {
      "anonymous": false,
      "inputs": [
        {
          "indexed": false,
          "internalType": "uint256",
          "name": "modelId",
          "type": "uint256"
        },
        {
          "indexed": false,
          "internalType": "address",
          "name": "leaser",
          "type": "address"
        }
      ],
      "name": "ModelReleased",
      "type": "event"
    },
    {
      "inputs": [
        {
          "internalType": "uint256",
          "name": "",
          "type": "uint256"
        }
      ],
      "name": "modelLeasers",
      "outputs": [
        {
          "internalType": "address",
          "name": "",
          "type": "address"
        }
      ],
      "stateMutability": "view",
      "type": "function",
      "constant": true
    },
    {
      "inputs": [
        {
          "internalType": "uint256",
          "name": "",
          "type": "uint256"
        }
      ],
      "name": "models",
      "outputs": [
        {
          "internalType": "uint256",
          "name": "id",
          "type": "uint256"
        },
        {
          "internalType": "address payable",
          "name": "owner",
          "type": "address"
        },
        {
          "internalType": "string",
          "name": "description",
          "type": "string"
        },
        {
          "internalType": "uint256",
          "name": "pricePerUse",
          "type": "uint256"
        },
        {
          "internalType": "bool",
          "name": "available",
          "type": "bool"
        }
      ],
      "stateMutability": "view",
      "type": "function",
      "constant": true
    },
    {
      "inputs": [
        {
          "internalType": "string",
          "name": "description",
          "type": "string"
        },
        {
          "internalType": "uint256",
          "name": "pricePerUse",
          "type": "uint256"
        }
      ],
      "name": "registerModel",
      "outputs": [],
      "stateMutability": "nonpayable",
      "type": "function"
    },
    {
      "inputs": [
        {
          "internalType": "uint256",
          "name": "modelId",
          "type": "uint256"
        }
      ],
      "name": "leaseModel",
      "outputs": [],
      "stateMutability": "payable",
      "type": "function",
      "payable": true
    },
    {
      "inputs": [
        {
          "internalType": "uint256",
          "name": "modelId",
          "type": "uint256"
        }
      ],
      "name": "releaseModel",
      "outputs": [],
      "stateMutability": "nonpayable",
      "type": "function"
    },
    {
      "inputs": [],
      "name": "getModelCount",
      "outputs": [
        {
          "internalType": "uint256",
          "name": "",
          "type": "uint256"
        }
      ],
      "stateMutability": "view",
      "type": "function",
      "constant": true
    },
    {
      "inputs": [
        {
          "internalType": "uint256",
          "name": "modelId",
          "type": "uint256"
        }
      ],
      "name": "getModel",
      "outputs": [
        {
          "internalType": "uint256",
          "name": "id",
          "type": "uint256"
        },
        {
          "internalType": "address",
          "name": "owner",
          "type": "address"
        },
        {
          "internalType": "string",
          "name": "description",
          "type": "string"
        },
        {
          "internalType": "uint256",
          "name": "pricePerUse",
          "type": "uint256"
        },
        {
          "internalType": "bool",
          "name": "available",
          "type": "bool"
        }
      ],
      "stateMutability": "view",
      "type": "function",
      "constant": true
    }
  ],
  "bytecode": "0x608060405234801561001057600080fd5b507f8ffcdc15a283d706d38281f500270d8b5a656918f555de0913d7455e3e6bc1bf33604051610040919061004d565b60405180910390a1610061565b6001600160a01b0391909116815260200190565b610e8c806100706000396000f3fe6080604052600436106100705760003560e01c80636a030ca91161004e5780636a030ca9146100e25780636d361694146101135780637dfb34f314610133578063c488fb621461016057610070565b80634989dbb01461007557806349bd293e146100a05780634cceb9be146100c2575b600080fd5b34801561008157600080fd5b5061008a610173565b6040516100979190610d48565b60405180910390f35b3480156100ac57600080fd5b506100c06100bb3660046109b8565b610179565b005b3480156100ce57600080fd5b506100c06100dd366004610a5f565b61033d565b3480156100ee57600080fd5b506101026100fd366004610a5f565b610488565b604051610097959493929190610d68565b34801561011f57600080fd5b5061010261012e366004610a5f565b610561565b34801561013f57600080fd5b5061015361014e366004610a5f565b6106f9565b6040516100979190610ac5565b6100c061016e366004610a5f565b610714565b60005490565b3361019f5760405162461bcd60e51b815260040161019690610ce1565b60405180910390fd5b600081116101bf5760405162461bcd60e51b815260040161019690610d11565b600080546040805160a081018252828152336020808301918252928201878152606083018790526001608084018190528501865594805281517f290decd9548b62a8d60345a988386fc84ba6bc95484008f6362f93160ef3e5636005860290810191825591517f290decd9548b62a8d60345a988386fc84ba6bc95484008f6362f93160ef3e564830180546001600160a01b0319166001600160a01b03909216919091179055945180519495929492936102a0937f290decd9548b62a8d60345a988386fc84ba6bc95484008f6362f93160ef3e5659093019291019061091f565b50606082015160038201556080909101516004909101805460ff19169115159190911790556040517f014ed8d238576d2b30ced417ba64fa4db7c350b5f09ffa335abaefcc33047e7b906102fb908390339087908790610dab565b60405180910390a17f4be5e2ddd7b814bfc07153581bbbda6ea3d62d61c270f9788cae2f0297e18ae860405161033090610c73565b60405180910390a1505050565b60005461035c5760405162461bcd60e51b815260040161019690610b2c565b600054811061037d5760405162461bcd60e51b815260040161019690610ad9565b6000818152600160205260409020546001600160a01b031633146103b35760405162461bcd60e51b815260040161019690610bc1565b6001600082815481106103d657634e487b7160e01b600052603260045260246000fd5b60009182526020808320600592909202909101600401805460ff191693151593909317909255828152600190915260409081902080546001600160a01b0319169055517f14068245f8e4f79dd41f38932d41b9337b9511ecc08d37be5d04936dc6ec0167906104489083903390610d51565b60405180910390a17f4be5e2ddd7b814bfc07153581bbbda6ea3d62d61c270f9788cae2f0297e18ae860405161047d90610c0e565b60405180910390a150565b6000818154811061049857600080fd5b60009182526020909120600590910201805460018201546002830180549294506001600160a01b0390911692916104ce90610e05565b80601f01602080910402602001604051908101604052809291908181526020018280546104fa90610e05565b80156105475780601f1061051c57610100808354040283529160200191610547565b820191906000526020600020905b81548152906001019060200180831161052a57829003601f168201915b50505050600383015460049093015491929160ff16905085565b6000806060600080600080805490501161058d5760405162461bcd60e51b815260040161019690610b2c565b60005486106105ae5760405162461bcd60e51b815260040161019690610ad9565b60008087815481106105d057634e487b7160e01b600052603260045260246000fd5b90600052602060002090600502016040518060a0016040529081600082015481526020016001820160009054906101000a90046001600160a01b03166001600160a01b03166001600160a01b0316815260200160028201805461063290610e05565b80601f016020809104026020016040519081016040528092919081815260200182805461065e90610e05565b80156106ab5780601f10610680576101008083540402835291602001916106ab565b820191906000526020600020905b81548152906001019060200180831161068e57829003601f168201915b5050509183525050600382015460208083019190915260049092015460ff161515604091820152825191830151908301516060840151608090940151929b919a509850919650945092505050565b6001602052600090815260409020546001600160a01b031681565b6000546107335760405162461bcd60e51b815260040161019690610b2c565b60005481106107545760405162461bcd60e51b815260040161019690610ad9565b600080828154811061077657634e487b7160e01b600052603260045260246000fd5b60009182526020909120600590910201600481015490915060ff166107ad5760405162461bcd60e51b815260040161019690610b91565b80600301543410156107d15760405162461bcd60e51b815260040161019690610c45565b6000828152600160205260409020546001600160a01b0316156108065760405162461bcd60e51b815260040161019690610b63565b60018101546040516000916001600160a01b031690349061082690610ac2565b60006040518083038185875af1925050503d8060008114610863576040519150601f19603f3d011682016040523d82523d6000602084013e610868565b606091505b50509050806108895760405162461bcd60e51b815260040161019690610b03565b60048201805460ff191690556000838152600160205260409081902080546001600160a01b0319163390811790915590517f8aa51994db373e2366d022e8f4a38a432773d299531ea6a4fd562d8237d08581916108ea918691903490610de6565b60405180910390a17f4be5e2ddd7b814bfc07153581bbbda6ea3d62d61c270f9788cae2f0297e18ae860405161033090610caa565b82805461092b90610e05565b90600052602060002090601f01602090048101928261094d5760008555610993565b82601f1061096657805160ff1916838001178555610993565b82800160010185558215610993579182015b82811115610993578251825591602001919060010190610978565b5061099f9291506109a3565b5090565b5b8082111561099f57600081556001016109a4565b600080604083850312156109ca578182fd5b823567ffffffffffffffff808211156109e1578384fd5b818501915085601f8301126109f4578384fd5b8135602082821115610a0857610a08610e40565b604051601f8301601f1916810182018481118282101715610a2b57610a2b610e40565b6040528281528483018201891015610a41578687fd5b82828601838301379182018101959095529694909301359450505050565b600060208284031215610a70578081fd5b5035919050565b60008151808452815b81811015610a9c57602081850181015186830182015201610a80565b81811115610aad5782602083870101525b50601f01601f19169290920160200192915050565b90565b6001600160a01b0391909116815260200190565b60208082526010908201526f125b9d985b1a59081b5bd9195b08125160821b604082015260600190565b6020808252600f908201526e151c985b9cd9995c8819985a5b1959608a1b604082015260600190565b60208082526018908201527f4e6f206d6f64656c732072656769737465726564207965740000000000000000604082015260600190565b602080825260149082015273135bd9195b08185b1c9958591e481b19585cd95960621b604082015260600190565b6020808252601690820152754d6f64656c206973206e6f7420617661696c61626c6560501b604082015260600190565b6020808252602d908201527f4f6e6c79207468652063757272656e74206c65617365722063616e2072656c6560408201526c185cd9481d1a19481b5bd9195b609a1b606082015260800190565b6020808252601b908201527f4d6f64656c2072656c6561736564207375636365737366756c6c790000000000604082015260600190565b602080825260149082015273125b9cdd59999a58da595b9d081c185e5b595b9d60621b604082015260600190565b6020808252601d908201527f4d6f64656c2072656769737465726564207375636365737366756c6c79000000604082015260600190565b60208082526019908201527f4d6f64656c206c6561736564207375636365737366756c6c7900000000000000604082015260600190565b602080825260169082015275496e76616c69642073656e646572206164647265737360501b604082015260600190565b6020808252601c908201527f5072696365206d7573742062652067726561746572207468616e203000000000604082015260600190565b90815260200190565b9182526001600160a01b0316602082015260400190565b8581526001600160a01b038516602082015260a060408201819052600090610d9290830186610a77565b6060830194909452509015156080909101529392505050565b8481526001600160a01b0384166020820152608060408201819052600090610dd590830185610a77565b905082606083015295945050505050565b9283526001600160a01b03919091166020830152604082015260600190565b600281046001821680610e1957607f821691505b60208210811415610e3a57634e487b7160e01b600052602260045260246000fd5b50919050565b634e487b7160e01b600052604160045260246000fdfea26469706673582212207c2fe7e2399ab189e0dd8aa97ecc02a97d0339396db46bedd4752193897a69c464736f6c63430008000033",
  "immutableReferences": {},
  "source": "// SPDX-License-Identifier: MIT\npragma solidity ^0.8.0;\n\ncontract AIModelLeasing {\n\n    // Struct for models\n    struct Model {\n        uint256 id;\n        address payable owner;\n        string description;\n        uint256 pricePerUse;\n        bool available;\n    }\n\n    // Array to hold all models\n    Model[] public models;\n\n    // Mapping to store the leaser for each model\n    mapping(uint256 => address) public modelLeasers;\n\n    // Debugging events\n    event DebugLog(string message);\n    event ContractDeployed(address deployer);\n    \n    // Event logs\n    event ModelRegistered(uint256 modelId, address owner, string description, uint256 pricePerUse);\n    event ModelLeased(uint256 modelId, address leaser, uint256 pricePaid);\n    event ModelReleased(uint256 modelId, address leaser);\n\n    // Contract constructor\n    constructor() {\n        emit ContractDeployed(msg.sender);\n    }\n\n    // Function to register a new model\n    function registerModel(string memory description, uint256 pricePerUse) public {\n        require(msg.sender != address(0), \"Invalid sender address\");\n        require(pricePerUse > 0, \"Price must be greater than 0\");\n\n        uint256 modelId = models.length;\n        models.push(Model(modelId, payable(msg.sender), description, pricePerUse, true));\n\n        emit ModelRegistered(modelId, msg.sender, description, pricePerUse);\n        emit DebugLog(\"Model registered successfully\");\n    }\n\n    // Function to lease a model\n    function leaseModel(uint256 modelId) public payable {\n        require(models.length > 0, \"No models registered yet\");\n        require(modelId < models.length, \"Invalid model ID\");\n        Model storage model = models[modelId];\n\n        require(model.available, \"Model is not available\");\n        require(msg.value >= model.pricePerUse, \"Insufficient payment\");\n        require(modelLeasers[modelId] == address(0), \"Model already leased\");\n\n        // Safe transfer of funds\n        (bool success, ) = model.owner.call{value: msg.value}(\"\");\n        require(success, \"Transfer failed\");\n\n        // Update model availability\n        model.available = false;\n        modelLeasers[modelId] = msg.sender;\n\n        emit ModelLeased(modelId, msg.sender, msg.value);\n        emit DebugLog(\"Model leased successfully\");\n    }\n\n    // Function to release a model (make it available again)\n    function releaseModel(uint256 modelId) public {\n        require(models.length > 0, \"No models registered yet\");\n        require(modelId < models.length, \"Invalid model ID\");\n        require(msg.sender == modelLeasers[modelId], \"Only the current leaser can release the model\");\n\n        models[modelId].available = true;\n        delete modelLeasers[modelId];\n\n        emit ModelReleased(modelId, msg.sender);\n        emit DebugLog(\"Model released successfully\");\n    }\n\n    // Get the number of models\n    function getModelCount() public view returns (uint256) {\n        return models.length;\n    }\n\n    // Get model details by modelId\n    function getModel(uint256 modelId) public view returns (\n        uint256 id,\n        address owner,\n        string memory description,\n        uint256 pricePerUse,\n        bool available\n    ) {\n        require(models.length > 0, \"No models registered yet\");\n        require(modelId < models.length, \"Invalid model ID\");\n\n        Model memory model = models[modelId];\n        return (model.id, model.owner, model.description, model.pricePerUse, model.available);\n    }\n}\n",
  "sourcePath": "/home/tobin/blockchain-ai-leasing/contracts/AIModelLeasing.sol",
  "compiler": {
    "name": "solc",
    "version": "0.8.0+commit.c7dfd78e.Emscripten.clang"
  },
  "schemaVersion": "3.4.16",
  "updatedAt": "2025-02-23T20:01:38.625Z",
  "networkType": "ethereum",
  "devdoc": {
    "kind": "dev",
    "methods": {},
    "version": 1
  },
  "userdoc": {
    "kind": "user",
    "methods": {},
    "version": 1
  }
}